{
  "contractName": "Adulam",
  "abi": [
    {
      "inputs": [
        {
          "internalType": "string",
          "name": "_name",
          "type": "string"
        },
        {
          "internalType": "string",
          "name": "_symbol",
          "type": "string"
        },
        {
          "internalType": "string",
          "name": "_baseURI",
          "type": "string"
        }
      ],
      "stateMutability": "nonpayable",
      "type": "constructor"
    },
    {
      "anonymous": false,
      "inputs": [
        {
          "indexed": true,
          "internalType": "address",
          "name": "owner",
          "type": "address"
        },
        {
          "indexed": true,
          "internalType": "address",
          "name": "approved",
          "type": "address"
        },
        {
          "indexed": true,
          "internalType": "uint256",
          "name": "tokenId",
          "type": "uint256"
        }
      ],
      "name": "Approval",
      "type": "event"
    },
    {
      "anonymous": false,
      "inputs": [
        {
          "indexed": true,
          "internalType": "address",
          "name": "owner",
          "type": "address"
        },
        {
          "indexed": true,
          "internalType": "address",
          "name": "operator",
          "type": "address"
        },
        {
          "indexed": false,
          "internalType": "bool",
          "name": "approved",
          "type": "bool"
        }
      ],
      "name": "ApprovalForAll",
      "type": "event"
    },
    {
      "anonymous": false,
      "inputs": [
        {
          "indexed": true,
          "internalType": "address",
          "name": "previousOwner",
          "type": "address"
        },
        {
          "indexed": true,
          "internalType": "address",
          "name": "newOwner",
          "type": "address"
        }
      ],
      "name": "OwnershipTransferred",
      "type": "event"
    },
    {
      "anonymous": false,
      "inputs": [
        {
          "indexed": false,
          "internalType": "uint256",
          "name": "id",
          "type": "uint256"
        },
        {
          "indexed": true,
          "internalType": "address",
          "name": "from",
          "type": "address"
        },
        {
          "indexed": true,
          "internalType": "address",
          "name": "to",
          "type": "address"
        },
        {
          "indexed": false,
          "internalType": "uint256",
          "name": "cost",
          "type": "uint256"
        },
        {
          "indexed": false,
          "internalType": "string",
          "name": "metadataURI",
          "type": "string"
        },
        {
          "indexed": false,
          "internalType": "uint256",
          "name": "timestamp",
          "type": "uint256"
        }
      ],
      "name": "Sale",
      "type": "event"
    },
    {
      "anonymous": false,
      "inputs": [
        {
          "indexed": true,
          "internalType": "address",
          "name": "from",
          "type": "address"
        },
        {
          "indexed": true,
          "internalType": "address",
          "name": "to",
          "type": "address"
        },
        {
          "indexed": true,
          "internalType": "uint256",
          "name": "tokenId",
          "type": "uint256"
        }
      ],
      "name": "Transfer",
      "type": "event"
    },
    {
      "inputs": [
        {
          "internalType": "address",
          "name": "to",
          "type": "address"
        },
        {
          "internalType": "uint256",
          "name": "tokenId",
          "type": "uint256"
        }
      ],
      "name": "approve",
      "outputs": [],
      "stateMutability": "nonpayable",
      "type": "function"
    },
    {
      "inputs": [
        {
          "internalType": "address",
          "name": "owner",
          "type": "address"
        }
      ],
      "name": "balanceOf",
      "outputs": [
        {
          "internalType": "uint256",
          "name": "",
          "type": "uint256"
        }
      ],
      "stateMutability": "view",
      "type": "function",
      "constant": true
    },
    {
      "inputs": [],
      "name": "baseURI",
      "outputs": [
        {
          "internalType": "string",
          "name": "",
          "type": "string"
        }
      ],
      "stateMutability": "view",
      "type": "function",
      "constant": true
    },
    {
      "inputs": [],
      "name": "cost",
      "outputs": [
        {
          "internalType": "uint256",
          "name": "",
          "type": "uint256"
        }
      ],
      "stateMutability": "view",
      "type": "function",
      "constant": true
    },
    {
      "inputs": [
        {
          "internalType": "string",
          "name": "",
          "type": "string"
        }
      ],
      "name": "existingURIs",
      "outputs": [
        {
          "internalType": "uint8",
          "name": "",
          "type": "uint8"
        }
      ],
      "stateMutability": "view",
      "type": "function",
      "constant": true
    },
    {
      "inputs": [
        {
          "internalType": "uint256",
          "name": "tokenId",
          "type": "uint256"
        }
      ],
      "name": "getApproved",
      "outputs": [
        {
          "internalType": "address",
          "name": "",
          "type": "address"
        }
      ],
      "stateMutability": "view",
      "type": "function",
      "constant": true
    },
    {
      "inputs": [
        {
          "internalType": "address",
          "name": "owner",
          "type": "address"
        },
        {
          "internalType": "address",
          "name": "operator",
          "type": "address"
        }
      ],
      "name": "isApprovedForAll",
      "outputs": [
        {
          "internalType": "bool",
          "name": "",
          "type": "bool"
        }
      ],
      "stateMutability": "view",
      "type": "function",
      "constant": true
    },
    {
      "inputs": [],
      "name": "maxSupply",
      "outputs": [
        {
          "internalType": "uint256",
          "name": "",
          "type": "uint256"
        }
      ],
      "stateMutability": "view",
      "type": "function",
      "constant": true
    },
    {
      "inputs": [],
      "name": "name",
      "outputs": [
        {
          "internalType": "string",
          "name": "",
          "type": "string"
        }
      ],
      "stateMutability": "view",
      "type": "function",
      "constant": true
    },
    {
      "inputs": [],
      "name": "owner",
      "outputs": [
        {
          "internalType": "address",
          "name": "",
          "type": "address"
        }
      ],
      "stateMutability": "view",
      "type": "function",
      "constant": true
    },
    {
      "inputs": [
        {
          "internalType": "uint256",
          "name": "tokenId",
          "type": "uint256"
        }
      ],
      "name": "ownerOf",
      "outputs": [
        {
          "internalType": "address",
          "name": "",
          "type": "address"
        }
      ],
      "stateMutability": "view",
      "type": "function",
      "constant": true
    },
    {
      "inputs": [],
      "name": "renounceOwnership",
      "outputs": [],
      "stateMutability": "nonpayable",
      "type": "function"
    },
    {
      "inputs": [
        {
          "internalType": "address",
          "name": "from",
          "type": "address"
        },
        {
          "internalType": "address",
          "name": "to",
          "type": "address"
        },
        {
          "internalType": "uint256",
          "name": "tokenId",
          "type": "uint256"
        }
      ],
      "name": "safeTransferFrom",
      "outputs": [],
      "stateMutability": "payable",
      "type": "function",
      "payable": true
    },
    {
      "inputs": [
        {
          "internalType": "address",
          "name": "from",
          "type": "address"
        },
        {
          "internalType": "address",
          "name": "to",
          "type": "address"
        },
        {
          "internalType": "uint256",
          "name": "tokenId",
          "type": "uint256"
        },
        {
          "internalType": "bytes",
          "name": "_data",
          "type": "bytes"
        }
      ],
      "name": "safeTransferFrom",
      "outputs": [],
      "stateMutability": "payable",
      "type": "function",
      "payable": true
    },
    {
      "inputs": [
        {
          "internalType": "address",
          "name": "operator",
          "type": "address"
        },
        {
          "internalType": "bool",
          "name": "approved",
          "type": "bool"
        }
      ],
      "name": "setApprovalForAll",
      "outputs": [],
      "stateMutability": "nonpayable",
      "type": "function"
    },
    {
      "inputs": [],
      "name": "supply",
      "outputs": [
        {
          "internalType": "uint256",
          "name": "",
          "type": "uint256"
        }
      ],
      "stateMutability": "view",
      "type": "function",
      "constant": true
    },
    {
      "inputs": [
        {
          "internalType": "bytes4",
          "name": "interfaceId",
          "type": "bytes4"
        }
      ],
      "name": "supportsInterface",
      "outputs": [
        {
          "internalType": "bool",
          "name": "",
          "type": "bool"
        }
      ],
      "stateMutability": "view",
      "type": "function",
      "constant": true
    },
    {
      "inputs": [],
      "name": "symbol",
      "outputs": [
        {
          "internalType": "string",
          "name": "",
          "type": "string"
        }
      ],
      "stateMutability": "view",
      "type": "function",
      "constant": true
    },
    {
      "inputs": [
        {
          "internalType": "uint256",
          "name": "index",
          "type": "uint256"
        }
      ],
      "name": "tokenByIndex",
      "outputs": [
        {
          "internalType": "uint256",
          "name": "",
          "type": "uint256"
        }
      ],
      "stateMutability": "view",
      "type": "function",
      "constant": true
    },
    {
      "inputs": [
        {
          "internalType": "address",
          "name": "owner",
          "type": "address"
        },
        {
          "internalType": "uint256",
          "name": "index",
          "type": "uint256"
        }
      ],
      "name": "tokenOfOwnerByIndex",
      "outputs": [
        {
          "internalType": "uint256",
          "name": "",
          "type": "uint256"
        }
      ],
      "stateMutability": "view",
      "type": "function",
      "constant": true
    },
    {
      "inputs": [
        {
          "internalType": "uint256",
          "name": "tokenId",
          "type": "uint256"
        }
      ],
      "name": "tokenURI",
      "outputs": [
        {
          "internalType": "string",
          "name": "",
          "type": "string"
        }
      ],
      "stateMutability": "view",
      "type": "function",
      "constant": true
    },
    {
      "inputs": [],
      "name": "totalSupply",
      "outputs": [
        {
          "internalType": "uint256",
          "name": "",
          "type": "uint256"
        }
      ],
      "stateMutability": "view",
      "type": "function",
      "constant": true
    },
    {
      "inputs": [
        {
          "internalType": "address",
          "name": "from",
          "type": "address"
        },
        {
          "internalType": "address",
          "name": "to",
          "type": "address"
        },
        {
          "internalType": "uint256",
          "name": "tokenId",
          "type": "uint256"
        }
      ],
      "name": "transferFrom",
      "outputs": [],
      "stateMutability": "payable",
      "type": "function",
      "payable": true
    },
    {
      "inputs": [
        {
          "internalType": "address",
          "name": "newOwner",
          "type": "address"
        }
      ],
      "name": "transferOwnership",
      "outputs": [],
      "stateMutability": "nonpayable",
      "type": "function"
    },
    {
      "inputs": [
        {
          "internalType": "string",
          "name": "title",
          "type": "string"
        },
        {
          "internalType": "string",
          "name": "description",
          "type": "string"
        }
      ],
      "name": "payToMint",
      "outputs": [],
      "stateMutability": "payable",
      "type": "function",
      "payable": true
    },
    {
      "inputs": [],
      "name": "getAllNFTs",
      "outputs": [
        {
          "components": [
            {
              "internalType": "uint256",
              "name": "id",
              "type": "uint256"
            },
            {
              "internalType": "address",
              "name": "from",
              "type": "address"
            },
            {
              "internalType": "address",
              "name": "to",
              "type": "address"
            },
            {
              "internalType": "uint256",
              "name": "cost",
              "type": "uint256"
            },
            {
              "internalType": "string",
              "name": "title",
              "type": "string"
            },
            {
              "internalType": "string",
              "name": "description",
              "type": "string"
            },
            {
              "internalType": "uint256",
              "name": "timestamp",
              "type": "uint256"
            }
          ],
          "internalType": "struct Adulam.SaleStruct[]",
          "name": "",
          "type": "tuple[]"
        }
      ],
      "stateMutability": "view",
      "type": "function",
      "constant": true
    },
    {
      "inputs": [
        {
          "internalType": "uint256",
          "name": "tokenId",
          "type": "uint256"
        }
      ],
      "name": "getAnNFTs",
      "outputs": [
        {
          "components": [
            {
              "internalType": "uint256",
              "name": "id",
              "type": "uint256"
            },
            {
              "internalType": "address",
              "name": "from",
              "type": "address"
            },
            {
              "internalType": "address",
              "name": "to",
              "type": "address"
            },
            {
              "internalType": "uint256",
              "name": "cost",
              "type": "uint256"
            },
            {
              "internalType": "string",
              "name": "title",
              "type": "string"
            },
            {
              "internalType": "string",
              "name": "description",
              "type": "string"
            },
            {
              "internalType": "uint256",
              "name": "timestamp",
              "type": "uint256"
            }
          ],
          "internalType": "struct Adulam.SaleStruct",
          "name": "",
          "type": "tuple"
        }
      ],
      "stateMutability": "view",
      "type": "function",
      "constant": true
    }
  ],
  "bytecode": "0x6080604052662386f26fc10000600c556064600d553480156200002157600080fd5b5060405162004c3538038062004c358339818101604052810190620000479190620003fd565b8282816000908051906020019062000061929190620001b0565b5080600190805190602001906200007a929190620001b0565b5050506200009d62000091620000d560201b60201c565b620000dd60201b60201c565b620000ad620001a360201b60201c565b600e8190555080600f9080519060200190620000cb929190620001b0565b505050506200051b565b600033905090565b6000600a60009054906101000a900473ffffffffffffffffffffffffffffffffffffffff16905081600a60006101000a81548173ffffffffffffffffffffffffffffffffffffffff021916908373ffffffffffffffffffffffffffffffffffffffff1602179055508173ffffffffffffffffffffffffffffffffffffffff168173ffffffffffffffffffffffffffffffffffffffff167f8be0079c531659141344cd1fd0a4f28419497f9722a3daafe3b4186f6b6457e060405160405180910390a35050565b6000600880549050905090565b828054620001be90620004e5565b90600052602060002090601f016020900481019282620001e257600085556200022e565b82601f10620001fd57805160ff19168380011785556200022e565b828001600101855582156200022e579182015b828111156200022d57825182559160200191906001019062000210565b5b5090506200023d919062000241565b5090565b5b808211156200025c57600081600090555060010162000242565b5090565b6000604051905090565b600080fd5b600080fd5b600080fd5b600080fd5b6000601f19601f8301169050919050565b7f4e487b7100000000000000000000000000000000000000000000000000000000600052604160045260246000fd5b620002c9826200027e565b810181811067ffffffffffffffff82111715620002eb57620002ea6200028f565b5b80604052505050565b60006200030062000260565b90506200030e8282620002be565b919050565b600067ffffffffffffffff8211156200033157620003306200028f565b5b6200033c826200027e565b9050602081019050919050565b60005b83811015620003695780820151818401526020810190506200034c565b8381111562000379576000848401525b50505050565b600062000396620003908462000313565b620002f4565b905082815260208101848484011115620003b557620003b462000279565b5b620003c284828562000349565b509392505050565b600082601f830112620003e257620003e162000274565b5b8151620003f48482602086016200037f565b91505092915050565b6000806000606084860312156200041957620004186200026a565b5b600084015167ffffffffffffffff8111156200043a57620004396200026f565b5b6200044886828701620003ca565b935050602084015167ffffffffffffffff8111156200046c576200046b6200026f565b5b6200047a86828701620003ca565b925050604084015167ffffffffffffffff8111156200049e576200049d6200026f565b5b620004ac86828701620003ca565b9150509250925092565b7f4e487b7100000000000000000000000000000000000000000000000000000000600052602260045260246000fd5b60006002820490506001821680620004fe57607f821691505b60208210811415620005155762000514620004b6565b5b50919050565b61470a806200052b6000396000f3fe60806040526004361061019c5760003560e01c80636c0360eb116100ec578063b88d4fde1161008a578063e0391b0911610064578063e0391b09146105ba578063e985e9c5146105e5578063f2fde38b14610622578063f37971df1461064b5761019c565b8063b88d4fde14610536578063c87b56dd14610552578063d5abeb011461058f5761019c565b80637d99c858116100c65780637d99c8581461049b5780638da5cb5b146104b757806395d89b41146104e2578063a22cb4651461050d5761019c565b80636c0360eb1461041c57806370a0823114610447578063715018a6146104845761019c565b806318160ddd1161015957806342842e0e1161013357806342842e0e146103495780634f6ccce7146103655780636352211e146103a257806368ef9d3c146103df5761019c565b806318160ddd146102c557806323b872dd146102f05780632f745c591461030c5761019c565b806301ffc9a7146101a1578063047fc9aa146101de57806306fdde0314610209578063081812fc14610234578063095ea7b31461027157806313faede61461029a575b600080fd5b3480156101ad57600080fd5b506101c860048036038101906101c39190612cf6565b610688565b6040516101d59190612d3e565b60405180910390f35b3480156101ea57600080fd5b506101f3610702565b6040516102009190612d72565b60405180910390f35b34801561021557600080fd5b5061021e610708565b60405161022b9190612e26565b60405180910390f35b34801561024057600080fd5b5061025b60048036038101906102569190612e74565b61079a565b6040516102689190612ee2565b60405180910390f35b34801561027d57600080fd5b5061029860048036038101906102939190612f29565b61081f565b005b3480156102a657600080fd5b506102af610937565b6040516102bc9190612d72565b60405180910390f35b3480156102d157600080fd5b506102da61093d565b6040516102e79190612d72565b60405180910390f35b61030a60048036038101906103059190612f69565b61094a565b005b34801561031857600080fd5b50610333600480360381019061032e9190612f29565b6109aa565b6040516103409190612d72565b60405180910390f35b610363600480360381019061035e9190612f69565b610a4f565b005b34801561037157600080fd5b5061038c60048036038101906103879190612e74565b610a6f565b6040516103999190612d72565b60405180910390f35b3480156103ae57600080fd5b506103c960048036038101906103c49190612e74565b610ae0565b6040516103d69190612ee2565b60405180910390f35b3480156103eb57600080fd5b5061040660048036038101906104019190612e74565b610b92565b60405161041391906130c7565b60405180910390f35b34801561042857600080fd5b50610431610dc8565b60405161043e9190612e26565b60405180910390f35b34801561045357600080fd5b5061046e600480360381019061046991906130e9565b610e56565b60405161047b9190612d72565b60405180910390f35b34801561049057600080fd5b50610499610f0e565b005b6104b560048036038101906104b0919061324b565b610f96565b005b3480156104c357600080fd5b506104cc61131c565b6040516104d99190612ee2565b60405180910390f35b3480156104ee57600080fd5b506104f7611346565b6040516105049190612e26565b60405180910390f35b34801561051957600080fd5b50610534600480360381019061052f91906132ef565b6113d8565b005b610550600480360381019061054b91906133d0565b6113ee565b005b34801561055e57600080fd5b5061057960048036038101906105749190612e74565b611450565b6040516105869190612e26565b60405180910390f35b34801561059b57600080fd5b506105a46114f7565b6040516105b19190612d72565b60405180910390f35b3480156105c657600080fd5b506105cf6114fd565b6040516105dc91906135b8565b60405180910390f35b3480156105f157600080fd5b5061060c600480360381019061060791906135da565b61174a565b6040516106199190612d3e565b60405180910390f35b34801561062e57600080fd5b50610649600480360381019061064491906130e9565b6117de565b005b34801561065757600080fd5b50610672600480360381019061066d919061361a565b6118d6565b60405161067f919061367f565b60405180910390f35b60007f780e9d63000000000000000000000000000000000000000000000000000000007bffffffffffffffffffffffffffffffffffffffffffffffffffffffff1916827bffffffffffffffffffffffffffffffffffffffffffffffffffffffff191614806106fb57506106fa8261190c565b5b9050919050565b600e5481565b606060008054610717906136c9565b80601f0160208091040260200160405190810160405280929190818152602001828054610743906136c9565b80156107905780601f1061076557610100808354040283529160200191610790565b820191906000526020600020905b81548152906001019060200180831161077357829003601f168201915b5050505050905090565b60006107a5826119ee565b6107e4576040517f08c379a00000000000000000000000000000000000000000000000000000000081526004016107db9061376d565b60405180910390fd5b6004600083815260200190815260200160002060009054906101000a900473ffffffffffffffffffffffffffffffffffffffff169050919050565b600061082a82610ae0565b90508073ffffffffffffffffffffffffffffffffffffffff168373ffffffffffffffffffffffffffffffffffffffff16141561089b576040517f08c379a0000000000000000000000000000000000000000000000000000000008152600401610892906137ff565b60405180910390fd5b8073ffffffffffffffffffffffffffffffffffffffff166108ba611a5a565b73ffffffffffffffffffffffffffffffffffffffff1614806108e957506108e8816108e3611a5a565b61174a565b5b610928576040517f08c379a000000000000000000000000000000000000000000000000000000000815260040161091f90613891565b60405180910390fd5b6109328383611a62565b505050565b600c5481565b6000600880549050905090565b61095b610955611a5a565b82611b1b565b61099a576040517f08c379a000000000000000000000000000000000000000000000000000000000815260040161099190613923565b60405180910390fd5b6109a5838383611bf9565b505050565b60006109b583610e56565b82106109f6576040517f08c379a00000000000000000000000000000000000000000000000000000000081526004016109ed906139b5565b60405180910390fd5b600660008473ffffffffffffffffffffffffffffffffffffffff1673ffffffffffffffffffffffffffffffffffffffff168152602001908152602001600020600083815260200190815260200160002054905092915050565b610a6a838383604051806020016040528060008152506113ee565b505050565b6000610a7961093d565b8210610aba576040517f08c379a0000000000000000000000000000000000000000000000000000000008152600401610ab190613a47565b60405180910390fd5b60088281548110610ace57610acd613a67565b5b90600052602060002001549050919050565b6000806002600084815260200190815260200160002060009054906101000a900473ffffffffffffffffffffffffffffffffffffffff169050600073ffffffffffffffffffffffffffffffffffffffff168173ffffffffffffffffffffffffffffffffffffffff161415610b89576040517f08c379a0000000000000000000000000000000000000000000000000000000008152600401610b8090613b08565b60405180910390fd5b80915050919050565b610b9a612b7e565b6010600183610ba99190613b57565b81548110610bba57610bb9613a67565b5b90600052602060002090600702016040518060e0016040529081600082015481526020016001820160009054906101000a900473ffffffffffffffffffffffffffffffffffffffff1673ffffffffffffffffffffffffffffffffffffffff1673ffffffffffffffffffffffffffffffffffffffff1681526020016002820160009054906101000a900473ffffffffffffffffffffffffffffffffffffffff1673ffffffffffffffffffffffffffffffffffffffff1673ffffffffffffffffffffffffffffffffffffffff16815260200160038201548152602001600482018054610ca3906136c9565b80601f0160208091040260200160405190810160405280929190818152602001828054610ccf906136c9565b8015610d1c5780601f10610cf157610100808354040283529160200191610d1c565b820191906000526020600020905b815481529060010190602001808311610cff57829003601f168201915b50505050508152602001600582018054610d35906136c9565b80601f0160208091040260200160405190810160405280929190818152602001828054610d61906136c9565b8015610dae5780601f10610d8357610100808354040283529160200191610dae565b820191906000526020600020905b815481529060010190602001808311610d9157829003601f168201915b505050505081526020016006820154815250509050919050565b600f8054610dd5906136c9565b80601f0160208091040260200160405190810160405280929190818152602001828054610e01906136c9565b8015610e4e5780601f10610e2357610100808354040283529160200191610e4e565b820191906000526020600020905b815481529060010190602001808311610e3157829003601f168201915b505050505081565b60008073ffffffffffffffffffffffffffffffffffffffff168273ffffffffffffffffffffffffffffffffffffffff161415610ec7576040517f08c379a0000000000000000000000000000000000000000000000000000000008152600401610ebe90613bfd565b60405180910390fd5b600360008373ffffffffffffffffffffffffffffffffffffffff1673ffffffffffffffffffffffffffffffffffffffff168152602001908152602001600020549050919050565b610f16611a5a565b73ffffffffffffffffffffffffffffffffffffffff16610f3461131c565b73ffffffffffffffffffffffffffffffffffffffff1614610f8a576040517f08c379a0000000000000000000000000000000000000000000000000000000008152600401610f8190613c69565b60405180910390fd5b610f946000611e55565b565b600d54600e541115610fdd576040517f08c379a0000000000000000000000000000000000000000000000000000000008152600401610fd490613cfb565b60405180910390fd5b60003411611020576040517f08c379a000000000000000000000000000000000000000000000000000000000815260040161101790613d67565b60405180910390fd5b61102861131c565b73ffffffffffffffffffffffffffffffffffffffff163373ffffffffffffffffffffffffffffffffffffffff161415611096576040517f08c379a000000000000000000000000000000000000000000000000000000000815260040161108d90613dd3565b60405180910390fd5b6001600e60008282546110a99190613df3565b9250508190555060006110d16110cc6001600e546110c79190613df3565b611f1b565b61207c565b90506001600b826040516110e59190613e85565b908152602001604051809103902060006101000a81548160ff021916908360ff16021790555061111c61111661131c565b346120a8565b60106040518060e00160405280600e5481526020013373ffffffffffffffffffffffffffffffffffffffff16815260200161115561131c565b73ffffffffffffffffffffffffffffffffffffffff1681526020013481526020018581526020018481526020014281525090806001815401808255809150506001900390600052602060002090600702016000909190919091506000820151816000015560208201518160010160006101000a81548173ffffffffffffffffffffffffffffffffffffffff021916908373ffffffffffffffffffffffffffffffffffffffff16021790555060408201518160020160006101000a81548173ffffffffffffffffffffffffffffffffffffffff021916908373ffffffffffffffffffffffffffffffffffffffff16021790555060608201518160030155608082015181600401908051906020019061126d929190612be7565b5060a082015181600501908051906020019061128a929190612be7565b5060c08201518160060155505061129f61131c565b73ffffffffffffffffffffffffffffffffffffffff163373ffffffffffffffffffffffffffffffffffffffff167f1bdfbffaa8395b26dd08fc601508f9d05fedf05d1494416e4077df529707fb7b600e543485426040516113039493929190613e9c565b60405180910390a361131733600e54612123565b505050565b6000600a60009054906101000a900473ffffffffffffffffffffffffffffffffffffffff16905090565b606060018054611355906136c9565b80601f0160208091040260200160405190810160405280929190818152602001828054611381906136c9565b80156113ce5780601f106113a3576101008083540402835291602001916113ce565b820191906000526020600020905b8154815290600101906020018083116113b157829003601f168201915b5050505050905090565b6113ea6113e3611a5a565b8383612141565b5050565b6113ff6113f9611a5a565b83611b1b565b61143e576040517f08c379a000000000000000000000000000000000000000000000000000000000815260040161143590613923565b60405180910390fd5b61144a848484846122ae565b50505050565b606061145b826119ee565b61149a576040517f08c379a000000000000000000000000000000000000000000000000000000000815260040161149190613f5a565b60405180910390fd5b60006114a461230a565b905060008151116114c457604051806020016040528060008152506114ef565b806114ce84611f1b565b6040516020016114df929190613f7a565b6040516020818303038152906040525b915050919050565b600d5481565b60606010805480602002602001604051908101604052809291908181526020016000905b8282101561174157838290600052602060002090600702016040518060e0016040529081600082015481526020016001820160009054906101000a900473ffffffffffffffffffffffffffffffffffffffff1673ffffffffffffffffffffffffffffffffffffffff1673ffffffffffffffffffffffffffffffffffffffff1681526020016002820160009054906101000a900473ffffffffffffffffffffffffffffffffffffffff1673ffffffffffffffffffffffffffffffffffffffff1673ffffffffffffffffffffffffffffffffffffffff16815260200160038201548152602001600482018054611614906136c9565b80601f0160208091040260200160405190810160405280929190818152602001828054611640906136c9565b801561168d5780601f106116625761010080835404028352916020019161168d565b820191906000526020600020905b81548152906001019060200180831161167057829003601f168201915b505050505081526020016005820180546116a6906136c9565b80601f01602080910402602001604051908101604052809291908181526020018280546116d2906136c9565b801561171f5780601f106116f45761010080835404028352916020019161171f565b820191906000526020600020905b81548152906001019060200180831161170257829003601f168201915b5050505050815260200160068201548152505081526020019060010190611521565b50505050905090565b6000600560008473ffffffffffffffffffffffffffffffffffffffff1673ffffffffffffffffffffffffffffffffffffffff16815260200190815260200160002060008373ffffffffffffffffffffffffffffffffffffffff1673ffffffffffffffffffffffffffffffffffffffff16815260200190815260200160002060009054906101000a900460ff16905092915050565b6117e6611a5a565b73ffffffffffffffffffffffffffffffffffffffff1661180461131c565b73ffffffffffffffffffffffffffffffffffffffff161461185a576040517f08c379a000000000000000000000000000000000000000000000000000000000815260040161185190613c69565b60405180910390fd5b600073ffffffffffffffffffffffffffffffffffffffff168173ffffffffffffffffffffffffffffffffffffffff1614156118ca576040517f08c379a00000000000000000000000000000000000000000000000000000000081526004016118c190614010565b60405180910390fd5b6118d381611e55565b50565b600b818051602081018201805184825260208301602085012081835280955050505050506000915054906101000a900460ff1681565b60007f80ac58cd000000000000000000000000000000000000000000000000000000007bffffffffffffffffffffffffffffffffffffffffffffffffffffffff1916827bffffffffffffffffffffffffffffffffffffffffffffffffffffffff191614806119d757507f5b5e139f000000000000000000000000000000000000000000000000000000007bffffffffffffffffffffffffffffffffffffffffffffffffffffffff1916827bffffffffffffffffffffffffffffffffffffffffffffffffffffffff1916145b806119e757506119e682612321565b5b9050919050565b60008073ffffffffffffffffffffffffffffffffffffffff166002600084815260200190815260200160002060009054906101000a900473ffffffffffffffffffffffffffffffffffffffff1673ffffffffffffffffffffffffffffffffffffffff1614159050919050565b600033905090565b816004600083815260200190815260200160002060006101000a81548173ffffffffffffffffffffffffffffffffffffffff021916908373ffffffffffffffffffffffffffffffffffffffff160217905550808273ffffffffffffffffffffffffffffffffffffffff16611ad583610ae0565b73ffffffffffffffffffffffffffffffffffffffff167f8c5be1e5ebec7d5bd14f71427d1e84f3dd0314c0f7b2291e5b200ac8c7c3b92560405160405180910390a45050565b6000611b26826119ee565b611b65576040517f08c379a0000000000000000000000000000000000000000000000000000000008152600401611b5c906140a2565b60405180910390fd5b6000611b7083610ae0565b90508073ffffffffffffffffffffffffffffffffffffffff168473ffffffffffffffffffffffffffffffffffffffff161480611bdf57508373ffffffffffffffffffffffffffffffffffffffff16611bc78461079a565b73ffffffffffffffffffffffffffffffffffffffff16145b80611bf05750611bef818561174a565b5b91505092915050565b8273ffffffffffffffffffffffffffffffffffffffff16611c1982610ae0565b73ffffffffffffffffffffffffffffffffffffffff1614611c6f576040517f08c379a0000000000000000000000000000000000000000000000000000000008152600401611c6690614134565b60405180910390fd5b600073ffffffffffffffffffffffffffffffffffffffff168273ffffffffffffffffffffffffffffffffffffffff161415611cdf576040517f08c379a0000000000000000000000000000000000000000000000000000000008152600401611cd6906141c6565b60405180910390fd5b611cea83838361238b565b611cf5600082611a62565b6001600360008573ffffffffffffffffffffffffffffffffffffffff1673ffffffffffffffffffffffffffffffffffffffff1681526020019081526020016000206000828254611d459190613b57565b925050819055506001600360008473ffffffffffffffffffffffffffffffffffffffff1673ffffffffffffffffffffffffffffffffffffffff1681526020019081526020016000206000828254611d9c9190613df3565b92505081905550816002600083815260200190815260200160002060006101000a81548173ffffffffffffffffffffffffffffffffffffffff021916908373ffffffffffffffffffffffffffffffffffffffff160217905550808273ffffffffffffffffffffffffffffffffffffffff168473ffffffffffffffffffffffffffffffffffffffff167fddf252ad1be2c89b69c2b068fc378daa952ba7f163c4a11628f55a4df523b3ef60405160405180910390a4505050565b6000600a60009054906101000a900473ffffffffffffffffffffffffffffffffffffffff16905081600a60006101000a81548173ffffffffffffffffffffffffffffffffffffffff021916908373ffffffffffffffffffffffffffffffffffffffff1602179055508173ffffffffffffffffffffffffffffffffffffffff168173ffffffffffffffffffffffffffffffffffffffff167f8be0079c531659141344cd1fd0a4f28419497f9722a3daafe3b4186f6b6457e060405160405180910390a35050565b60606000821415611f63576040518060400160405280600181526020017f30000000000000000000000000000000000000000000000000000000000000008152509050612077565b600082905060005b60008214611f95578080611f7e906141e6565b915050600a82611f8e919061425e565b9150611f6b565b60008167ffffffffffffffff811115611fb157611fb0613120565b5b6040519080825280601f01601f191660200182016040528015611fe35781602001600182028036833780820191505090505b5090505b6000851461207057600182611ffc9190613b57565b9150600a8561200b919061428f565b60306120179190613df3565b60f81b81838151811061202d5761202c613a67565b5b60200101907effffffffffffffffffffffffffffffffffffffffffffffffffffffffffffff1916908160001a905350600a85612069919061425e565b9450611fe7565b8093505050505b919050565b6060600f8260405160200161209292919061437a565b6040516020818303038152906040529050919050565b60008273ffffffffffffffffffffffffffffffffffffffff16826040516120ce906143d7565b60006040518083038185875af1925050503d806000811461210b576040519150601f19603f3d011682016040523d82523d6000602084013e612110565b606091505b505090508061211e57600080fd5b505050565b61213d82826040518060200160405280600081525061249f565b5050565b8173ffffffffffffffffffffffffffffffffffffffff168373ffffffffffffffffffffffffffffffffffffffff1614156121b0576040517f08c379a00000000000000000000000000000000000000000000000000000000081526004016121a790614438565b60405180910390fd5b80600560008573ffffffffffffffffffffffffffffffffffffffff1673ffffffffffffffffffffffffffffffffffffffff16815260200190815260200160002060008473ffffffffffffffffffffffffffffffffffffffff1673ffffffffffffffffffffffffffffffffffffffff16815260200190815260200160002060006101000a81548160ff0219169083151502179055508173ffffffffffffffffffffffffffffffffffffffff168373ffffffffffffffffffffffffffffffffffffffff167f17307eab39ab6107e8899845ad3d59bd9653f200f220920489ca2b5937696c31836040516122a19190612d3e565b60405180910390a3505050565b6122b9848484611bf9565b6122c5848484846124fa565b612304576040517f08c379a00000000000000000000000000000000000000000000000000000000081526004016122fb906144ca565b60405180910390fd5b50505050565b606060405180602001604052806000815250905090565b60007f01ffc9a7000000000000000000000000000000000000000000000000000000007bffffffffffffffffffffffffffffffffffffffffffffffffffffffff1916827bffffffffffffffffffffffffffffffffffffffffffffffffffffffff1916149050919050565b612396838383612682565b600073ffffffffffffffffffffffffffffffffffffffff168373ffffffffffffffffffffffffffffffffffffffff1614156123d9576123d481612687565b612418565b8173ffffffffffffffffffffffffffffffffffffffff168373ffffffffffffffffffffffffffffffffffffffff16146124175761241683826126d0565b5b5b600073ffffffffffffffffffffffffffffffffffffffff168273ffffffffffffffffffffffffffffffffffffffff16141561245b576124568161283d565b61249a565b8273ffffffffffffffffffffffffffffffffffffffff168273ffffffffffffffffffffffffffffffffffffffff161461249957612498828261290e565b5b5b505050565b6124a9838361298d565b6124b660008484846124fa565b6124f5576040517f08c379a00000000000000000000000000000000000000000000000000000000081526004016124ec906144ca565b60405180910390fd5b505050565b600061251b8473ffffffffffffffffffffffffffffffffffffffff16612b5b565b15612675578373ffffffffffffffffffffffffffffffffffffffff1663150b7a02612544611a5a565b8786866040518563ffffffff1660e01b8152600401612566949392919061453f565b6020604051808303816000875af19250505080156125a257506040513d601f19601f8201168201806040525081019061259f91906145a0565b60015b612625573d80600081146125d2576040519150601f19603f3d011682016040523d82523d6000602084013e6125d7565b606091505b5060008151141561261d576040517f08c379a0000000000000000000000000000000000000000000000000000000008152600401612614906144ca565b60405180910390fd5b805181602001fd5b63150b7a0260e01b7bffffffffffffffffffffffffffffffffffffffffffffffffffffffff1916817bffffffffffffffffffffffffffffffffffffffffffffffffffffffff19161491505061267a565b600190505b949350505050565b505050565b6008805490506009600083815260200190815260200160002081905550600881908060018154018082558091505060019003906000526020600020016000909190919091505550565b600060016126dd84610e56565b6126e79190613b57565b90506000600760008481526020019081526020016000205490508181146127cc576000600660008673ffffffffffffffffffffffffffffffffffffffff1673ffffffffffffffffffffffffffffffffffffffff168152602001908152602001600020600084815260200190815260200160002054905080600660008773ffffffffffffffffffffffffffffffffffffffff1673ffffffffffffffffffffffffffffffffffffffff168152602001908152602001600020600084815260200190815260200160002081905550816007600083815260200190815260200160002081905550505b6007600084815260200190815260200160002060009055600660008573ffffffffffffffffffffffffffffffffffffffff1673ffffffffffffffffffffffffffffffffffffffff16815260200190815260200160002060008381526020019081526020016000206000905550505050565b600060016008805490506128519190613b57565b905060006009600084815260200190815260200160002054905060006008838154811061288157612880613a67565b5b9060005260206000200154905080600883815481106128a3576128a2613a67565b5b9060005260206000200181905550816009600083815260200190815260200160002081905550600960008581526020019081526020016000206000905560088054806128f2576128f16145cd565b5b6001900381819060005260206000200160009055905550505050565b600061291983610e56565b905081600660008573ffffffffffffffffffffffffffffffffffffffff1673ffffffffffffffffffffffffffffffffffffffff168152602001908152602001600020600083815260200190815260200160002081905550806007600084815260200190815260200160002081905550505050565b600073ffffffffffffffffffffffffffffffffffffffff168273ffffffffffffffffffffffffffffffffffffffff1614156129fd576040517f08c379a00000000000000000000000000000000000000000000000000000000081526004016129f490614648565b60405180910390fd5b612a06816119ee565b15612a46576040517f08c379a0000000000000000000000000000000000000000000000000000000008152600401612a3d906146b4565b60405180910390fd5b612a526000838361238b565b6001600360008473ffffffffffffffffffffffffffffffffffffffff1673ffffffffffffffffffffffffffffffffffffffff1681526020019081526020016000206000828254612aa29190613df3565b92505081905550816002600083815260200190815260200160002060006101000a81548173ffffffffffffffffffffffffffffffffffffffff021916908373ffffffffffffffffffffffffffffffffffffffff160217905550808273ffffffffffffffffffffffffffffffffffffffff16600073ffffffffffffffffffffffffffffffffffffffff167fddf252ad1be2c89b69c2b068fc378daa952ba7f163c4a11628f55a4df523b3ef60405160405180910390a45050565b6000808273ffffffffffffffffffffffffffffffffffffffff163b119050919050565b6040518060e0016040528060008152602001600073ffffffffffffffffffffffffffffffffffffffff168152602001600073ffffffffffffffffffffffffffffffffffffffff168152602001600081526020016060815260200160608152602001600081525090565b828054612bf3906136c9565b90600052602060002090601f016020900481019282612c155760008555612c5c565b82601f10612c2e57805160ff1916838001178555612c5c565b82800160010185558215612c5c579182015b82811115612c5b578251825591602001919060010190612c40565b5b509050612c699190612c6d565b5090565b5b80821115612c86576000816000905550600101612c6e565b5090565b6000604051905090565b600080fd5b600080fd5b60007fffffffff0000000000000000000000000000000000000000000000000000000082169050919050565b612cd381612c9e565b8114612cde57600080fd5b50565b600081359050612cf081612cca565b92915050565b600060208284031215612d0c57612d0b612c94565b5b6000612d1a84828501612ce1565b91505092915050565b60008115159050919050565b612d3881612d23565b82525050565b6000602082019050612d536000830184612d2f565b92915050565b6000819050919050565b612d6c81612d59565b82525050565b6000602082019050612d876000830184612d63565b92915050565b600081519050919050565b600082825260208201905092915050565b60005b83811015612dc7578082015181840152602081019050612dac565b83811115612dd6576000848401525b50505050565b6000601f19601f8301169050919050565b6000612df882612d8d565b612e028185612d98565b9350612e12818560208601612da9565b612e1b81612ddc565b840191505092915050565b60006020820190508181036000830152612e408184612ded565b905092915050565b612e5181612d59565b8114612e5c57600080fd5b50565b600081359050612e6e81612e48565b92915050565b600060208284031215612e8a57612e89612c94565b5b6000612e9884828501612e5f565b91505092915050565b600073ffffffffffffffffffffffffffffffffffffffff82169050919050565b6000612ecc82612ea1565b9050919050565b612edc81612ec1565b82525050565b6000602082019050612ef76000830184612ed3565b92915050565b612f0681612ec1565b8114612f1157600080fd5b50565b600081359050612f2381612efd565b92915050565b60008060408385031215612f4057612f3f612c94565b5b6000612f4e85828601612f14565b9250506020612f5f85828601612e5f565b9150509250929050565b600080600060608486031215612f8257612f81612c94565b5b6000612f9086828701612f14565b9350506020612fa186828701612f14565b9250506040612fb286828701612e5f565b9150509250925092565b612fc581612d59565b82525050565b612fd481612ec1565b82525050565b600082825260208201905092915050565b6000612ff682612d8d565b6130008185612fda565b9350613010818560208601612da9565b61301981612ddc565b840191505092915050565b600060e08301600083015161303c6000860182612fbc565b50602083015161304f6020860182612fcb565b5060408301516130626040860182612fcb565b5060608301516130756060860182612fbc565b506080830151848203608086015261308d8282612feb565b91505060a083015184820360a08601526130a78282612feb565b91505060c08301516130bc60c0860182612fbc565b508091505092915050565b600060208201905081810360008301526130e18184613024565b905092915050565b6000602082840312156130ff576130fe612c94565b5b600061310d84828501612f14565b91505092915050565b600080fd5b600080fd5b7f4e487b7100000000000000000000000000000000000000000000000000000000600052604160045260246000fd5b61315882612ddc565b810181811067ffffffffffffffff8211171561317757613176613120565b5b80604052505050565b600061318a612c8a565b9050613196828261314f565b919050565b600067ffffffffffffffff8211156131b6576131b5613120565b5b6131bf82612ddc565b9050602081019050919050565b82818337600083830152505050565b60006131ee6131e98461319b565b613180565b90508281526020810184848401111561320a5761320961311b565b5b6132158482856131cc565b509392505050565b600082601f83011261323257613231613116565b5b81356132428482602086016131db565b91505092915050565b6000806040838503121561326257613261612c94565b5b600083013567ffffffffffffffff8111156132805761327f612c99565b5b61328c8582860161321d565b925050602083013567ffffffffffffffff8111156132ad576132ac612c99565b5b6132b98582860161321d565b9150509250929050565b6132cc81612d23565b81146132d757600080fd5b50565b6000813590506132e9816132c3565b92915050565b6000806040838503121561330657613305612c94565b5b600061331485828601612f14565b9250506020613325858286016132da565b9150509250929050565b600067ffffffffffffffff82111561334a57613349613120565b5b61335382612ddc565b9050602081019050919050565b600061337361336e8461332f565b613180565b90508281526020810184848401111561338f5761338e61311b565b5b61339a8482856131cc565b509392505050565b600082601f8301126133b7576133b6613116565b5b81356133c7848260208601613360565b91505092915050565b600080600080608085870312156133ea576133e9612c94565b5b60006133f887828801612f14565b945050602061340987828801612f14565b935050604061341a87828801612e5f565b925050606085013567ffffffffffffffff81111561343b5761343a612c99565b5b613447878288016133a2565b91505092959194509250565b600081519050919050565b600082825260208201905092915050565b6000819050602082019050919050565b600060e0830160008301516134976000860182612fbc565b5060208301516134aa6020860182612fcb565b5060408301516134bd6040860182612fcb565b5060608301516134d06060860182612fbc565b50608083015184820360808601526134e88282612feb565b91505060a083015184820360a08601526135028282612feb565b91505060c083015161351760c0860182612fbc565b508091505092915050565b600061352e838361347f565b905092915050565b6000602082019050919050565b600061354e82613453565b613558818561345e565b93508360208202850161356a8561346f565b8060005b858110156135a657848403895281516135878582613522565b945061359283613536565b925060208a0199505060018101905061356e565b50829750879550505050505092915050565b600060208201905081810360008301526135d28184613543565b905092915050565b600080604083850312156135f1576135f0612c94565b5b60006135ff85828601612f14565b925050602061361085828601612f14565b9150509250929050565b6000602082840312156136305761362f612c94565b5b600082013567ffffffffffffffff81111561364e5761364d612c99565b5b61365a8482850161321d565b91505092915050565b600060ff82169050919050565b61367981613663565b82525050565b60006020820190506136946000830184613670565b92915050565b7f4e487b7100000000000000000000000000000000000000000000000000000000600052602260045260246000fd5b600060028204905060018216806136e157607f821691505b602082108114156136f5576136f461369a565b5b50919050565b7f4552433732313a20617070726f76656420717565727920666f72206e6f6e657860008201527f697374656e7420746f6b656e0000000000000000000000000000000000000000602082015250565b6000613757602c83612d98565b9150613762826136fb565b604082019050919050565b600060208201905081810360008301526137868161374a565b9050919050565b7f4552433732313a20617070726f76616c20746f2063757272656e74206f776e6560008201527f7200000000000000000000000000000000000000000000000000000000000000602082015250565b60006137e9602183612d98565b91506137f48261378d565b604082019050919050565b60006020820190508181036000830152613818816137dc565b9050919050565b7f4552433732313a20617070726f76652063616c6c6572206973206e6f74206f7760008201527f6e6572206e6f7220617070726f76656420666f7220616c6c0000000000000000602082015250565b600061387b603883612d98565b91506138868261381f565b604082019050919050565b600060208201905081810360008301526138aa8161386e565b9050919050565b7f4552433732313a207472616e736665722063616c6c6572206973206e6f74206f60008201527f776e6572206e6f7220617070726f766564000000000000000000000000000000602082015250565b600061390d603183612d98565b9150613918826138b1565b604082019050919050565b6000602082019050818103600083015261393c81613900565b9050919050565b7f455243373231456e756d657261626c653a206f776e657220696e646578206f7560008201527f74206f6620626f756e6473000000000000000000000000000000000000000000602082015250565b600061399f602b83612d98565b91506139aa82613943565b604082019050919050565b600060208201905081810360008301526139ce81613992565b9050919050565b7f455243373231456e756d657261626c653a20676c6f62616c20696e646578206f60008201527f7574206f6620626f756e64730000000000000000000000000000000000000000602082015250565b6000613a31602c83612d98565b9150613a3c826139d5565b604082019050919050565b60006020820190508181036000830152613a6081613a24565b9050919050565b7f4e487b7100000000000000000000000000000000000000000000000000000000600052603260045260246000fd5b7f4552433732313a206f776e657220717565727920666f72206e6f6e657869737460008201527f656e7420746f6b656e0000000000000000000000000000000000000000000000602082015250565b6000613af2602983612d98565b9150613afd82613a96565b604082019050919050565b60006020820190508181036000830152613b2181613ae5565b9050919050565b7f4e487b7100000000000000000000000000000000000000000000000000000000600052601160045260246000fd5b6000613b6282612d59565b9150613b6d83612d59565b925082821015613b8057613b7f613b28565b5b828203905092915050565b7f4552433732313a2062616c616e636520717565727920666f7220746865207a6560008201527f726f206164647265737300000000000000000000000000000000000000000000602082015250565b6000613be7602a83612d98565b9150613bf282613b8b565b604082019050919050565b60006020820190508181036000830152613c1681613bda565b9050919050565b7f4f776e61626c653a2063616c6c6572206973206e6f7420746865206f776e6572600082015250565b6000613c53602083612d98565b9150613c5e82613c1d565b602082019050919050565b60006020820190508181036000830152613c8281613c46565b9050919050565b7f536f7272792c20616c6c204e4654732068617665206265656e206d696e74656460008201527f2100000000000000000000000000000000000000000000000000000000000000602082015250565b6000613ce5602183612d98565b9150613cf082613c89565b604082019050919050565b60006020820190508181036000830152613d1481613cd8565b9050919050565b7f457468657220746f6f206c6f7720666f72206d696e74696e6721000000000000600082015250565b6000613d51601a83612d98565b9150613d5c82613d1b565b602082019050919050565b60006020820190508181036000830152613d8081613d44565b9050919050565b7f54686973206973206e6f74207065726d69747465642100000000000000000000600082015250565b6000613dbd601683612d98565b9150613dc882613d87565b602082019050919050565b60006020820190508181036000830152613dec81613db0565b9050919050565b6000613dfe82612d59565b9150613e0983612d59565b9250827fffffffffffffffffffffffffffffffffffffffffffffffffffffffffffffffff03821115613e3e57613e3d613b28565b5b828201905092915050565b600081905092915050565b6000613e5f82612d8d565b613e698185613e49565b9350613e79818560208601612da9565b80840191505092915050565b6000613e918284613e54565b915081905092915050565b6000608082019050613eb16000830187612d63565b613ebe6020830186612d63565b8181036040830152613ed08185612ded565b9050613edf6060830184612d63565b95945050505050565b7f4552433732314d657461646174613a2055524920717565727920666f72206e6f60008201527f6e6578697374656e7420746f6b656e0000000000000000000000000000000000602082015250565b6000613f44602f83612d98565b9150613f4f82613ee8565b604082019050919050565b60006020820190508181036000830152613f7381613f37565b9050919050565b6000613f868285613e54565b9150613f928284613e54565b91508190509392505050565b7f4f776e61626c653a206e6577206f776e657220697320746865207a65726f206160008201527f6464726573730000000000000000000000000000000000000000000000000000602082015250565b6000613ffa602683612d98565b915061400582613f9e565b604082019050919050565b6000602082019050818103600083015261402981613fed565b9050919050565b7f4552433732313a206f70657261746f7220717565727920666f72206e6f6e657860008201527f697374656e7420746f6b656e0000000000000000000000000000000000000000602082015250565b600061408c602c83612d98565b915061409782614030565b604082019050919050565b600060208201905081810360008301526140bb8161407f565b9050919050565b7f4552433732313a207472616e73666572206f6620746f6b656e2074686174206960008201527f73206e6f74206f776e0000000000000000000000000000000000000000000000602082015250565b600061411e602983612d98565b9150614129826140c2565b604082019050919050565b6000602082019050818103600083015261414d81614111565b9050919050565b7f4552433732313a207472616e7366657220746f20746865207a65726f2061646460008201527f7265737300000000000000000000000000000000000000000000000000000000602082015250565b60006141b0602483612d98565b91506141bb82614154565b604082019050919050565b600060208201905081810360008301526141df816141a3565b9050919050565b60006141f182612d59565b91507fffffffffffffffffffffffffffffffffffffffffffffffffffffffffffffffff82141561422457614223613b28565b5b600182019050919050565b7f4e487b7100000000000000000000000000000000000000000000000000000000600052601260045260246000fd5b600061426982612d59565b915061427483612d59565b9250826142845761428361422f565b5b828204905092915050565b600061429a82612d59565b91506142a583612d59565b9250826142b5576142b461422f565b5b828206905092915050565b60008190508160005260206000209050919050565b600081546142e2816136c9565b6142ec8186613e49565b9450600182166000811461430757600181146143185761434b565b60ff1983168652818601935061434b565b614321856142c0565b60005b8381101561434357815481890152600182019150602081019050614324565b838801955050505b50505092915050565b50565b6000614364600083613e49565b915061436f82614354565b600082019050919050565b600061438682856142d5565b915061439182614357565b915061439d8284613e54565b91508190509392505050565b600081905092915050565b60006143c16000836143a9565b91506143cc82614354565b600082019050919050565b60006143e2826143b4565b9150819050919050565b7f4552433732313a20617070726f766520746f2063616c6c657200000000000000600082015250565b6000614422601983612d98565b915061442d826143ec565b602082019050919050565b6000602082019050818103600083015261445181614415565b9050919050565b7f4552433732313a207472616e7366657220746f206e6f6e20455243373231526560008201527f63656976657220696d706c656d656e7465720000000000000000000000000000602082015250565b60006144b4603283612d98565b91506144bf82614458565b604082019050919050565b600060208201905081810360008301526144e3816144a7565b9050919050565b600081519050919050565b600082825260208201905092915050565b6000614511826144ea565b61451b81856144f5565b935061452b818560208601612da9565b61453481612ddc565b840191505092915050565b60006080820190506145546000830187612ed3565b6145616020830186612ed3565b61456e6040830185612d63565b81810360608301526145808184614506565b905095945050505050565b60008151905061459a81612cca565b92915050565b6000602082840312156145b6576145b5612c94565b5b60006145c48482850161458b565b91505092915050565b7f4e487b7100000000000000000000000000000000000000000000000000000000600052603160045260246000fd5b7f4552433732313a206d696e7420746f20746865207a65726f2061646472657373600082015250565b6000614632602083612d98565b915061463d826145fc565b602082019050919050565b6000602082019050818103600083015261466181614625565b9050919050565b7f4552433732313a20746f6b656e20616c7265616479206d696e74656400000000600082015250565b600061469e601c83612d98565b91506146a982614668565b602082019050919050565b600060208201905081810360008301526146cd81614691565b905091905056fea264697066735822122091bea71e1fc62dd8b1b0b01d1ad67ccc45d0b52aaccbf70a0d26588512bc861164736f6c634300080b0033",
  "immutableReferences": {},
  "source": "// SPDX-License-Identifier: MIT\r\npragma solidity >=0.7.0 <0.9.0;\r\n\r\nimport \"./ERC721.sol\";\r\nimport \"./ERC721Enumerable.sol\";\r\nimport \"@openzeppelin/contracts/access/Ownable.sol\";\r\n\r\ncontract Adulam is ERC721Enumerable, Ownable {\r\n    using Strings for uint256;\r\n\r\n    mapping(string => uint8) public existingURIs;\r\n    uint256 public cost = 0.01 ether;\r\n    uint256 public maxSupply = 100;\r\n    uint256 public supply;\r\n    string public baseURI;\r\n\r\n    event Sale(\r\n        uint256 id,\r\n        address indexed from,\r\n        address indexed to,\r\n        uint256 cost,\r\n        string metadataURI,\r\n        uint256 timestamp\r\n    );\r\n\r\n    struct SaleStruct {\r\n        uint256 id;\r\n        address from;\r\n        address to;\r\n        uint256 cost;\r\n        string title;\r\n        string description;\r\n        uint256 timestamp;\r\n    }\r\n\r\n    SaleStruct[] minted;\r\n\r\n    constructor(\r\n        string memory _name,\r\n        string memory _symbol,\r\n        string memory _baseURI\r\n    ) ERC721(_name, _symbol) {\r\n        supply = totalSupply();\r\n        baseURI = _baseURI;\r\n    }\r\n\r\n    function payToMint(string memory title, string memory description) public payable {\r\n        require(supply <= maxSupply, \"Sorry, all NFTs have been minted!\");\r\n        require(msg.value > 0 ether, \"Ether too low for minting!\");\r\n        require(msg.sender != owner(), \"This is not permitted!\");\r\n\r\n        supply += 1;\r\n        string memory URI = concat(Strings.toString(supply + 1));\r\n        existingURIs[URI] = 1;\r\n\r\n        sendMoneyTo(owner(), msg.value);\r\n\r\n        minted.push(\r\n            SaleStruct(\r\n                supply,\r\n                msg.sender,\r\n                owner(),\r\n                msg.value,\r\n                title,\r\n                description,\r\n                block.timestamp\r\n            )\r\n        );\r\n\r\n        emit Sale(supply, msg.sender, owner(), msg.value, URI, block.timestamp);\r\n        _safeMint(msg.sender, supply);\r\n    }\r\n\r\n    function getAllNFTs() public view returns (SaleStruct[] memory) {\r\n        return minted;\r\n    }\r\n    \r\n    function getAnNFTs(uint256 tokenId) public view returns (SaleStruct memory) {\r\n        return minted[tokenId - 1];\r\n    }\r\n\r\n    function concat(string memory str) internal view returns (string memory) {\r\n        return string(abi.encodePacked(baseURI, \"\", str));\r\n    }\r\n\r\n    function sendMoneyTo(address to, uint256 amount) internal {\r\n        (bool success1, ) = payable(to).call{value: amount}(\"\");\r\n        require(success1);\r\n    }\r\n}\r\n",
  "sourcePath": "C:\\Users\\electroid\\Desktop\\minting sites\\New folder\\adulamNFT\\src\\contracts\\Adulam.sol",
  "compiler": {
    "name": "solc",
    "version": "0.8.11+commit.d7f03943.Emscripten.clang"
  },
  "schemaVersion": "3.4.6",
  "updatedAt": "2022-06-08T18:24:13.190Z",
  "networkType": "ethereum",
  "devdoc": {
    "kind": "dev",
    "methods": {
      "approve(address,uint256)": {
        "details": "See {IERC721-approve}."
      },
      "balanceOf(address)": {
        "details": "See {IERC721-balanceOf}."
      },
      "getApproved(uint256)": {
        "details": "See {IERC721-getApproved}."
      },
      "isApprovedForAll(address,address)": {
        "details": "See {IERC721-isApprovedForAll}."
      },
      "name()": {
        "details": "See {IERC721Metadata-name}."
      },
      "owner()": {
        "details": "Returns the address of the current owner."
      },
      "ownerOf(uint256)": {
        "details": "See {IERC721-ownerOf}."
      },
      "renounceOwnership()": {
        "details": "Leaves the contract without owner. It will not be possible to call `onlyOwner` functions anymore. Can only be called by the current owner. NOTE: Renouncing ownership will leave the contract without an owner, thereby removing any functionality that is only available to the owner."
      },
      "safeTransferFrom(address,address,uint256)": {
        "details": "See {IERC721-safeTransferFrom}."
      },
      "safeTransferFrom(address,address,uint256,bytes)": {
        "details": "See {IERC721-safeTransferFrom}."
      },
      "setApprovalForAll(address,bool)": {
        "details": "See {IERC721-setApprovalForAll}."
      },
      "supportsInterface(bytes4)": {
        "details": "See {IERC165-supportsInterface}."
      },
      "symbol()": {
        "details": "See {IERC721Metadata-symbol}."
      },
      "tokenByIndex(uint256)": {
        "details": "See {IERC721Enumerable-tokenByIndex}."
      },
      "tokenOfOwnerByIndex(address,uint256)": {
        "details": "See {IERC721Enumerable-tokenOfOwnerByIndex}."
      },
      "tokenURI(uint256)": {
        "details": "See {IERC721Metadata-tokenURI}."
      },
      "totalSupply()": {
        "details": "See {IERC721Enumerable-totalSupply}."
      },
      "transferFrom(address,address,uint256)": {
        "details": "See {IERC721-transferFrom}."
      },
      "transferOwnership(address)": {
        "details": "Transfers ownership of the contract to a new account (`newOwner`). Can only be called by the current owner."
      }
    },
    "version": 1
  },
  "userdoc": {
    "kind": "user",
    "methods": {},
    "version": 1
  }
}